package main

import (
	"encoding/hex"
	"encoding/json"
	"fmt"

	"github.com/ethereum/go-ethereum/common"
	"github.com/ethereum/go-ethereum/core"
	"github.com/ethereum/go-ethereum/core/stateless"
	"github.com/ethereum/go-ethereum/core/types"
	"github.com/ethereum/go-ethereum/params"
	"github.com/ethereum/go-ethereum/rlp"
)

type Block struct {
	*types.Block
}

type txs struct {
	Transactions []*types.Transaction
}

func (b *Block) UnmarshalJSON(input []byte) error {
	h := &types.Header{}
	err := json.Unmarshal(input, h)
	if err != nil {
		return err
	}
	h.Root = common.Hash{}
	h.ReceiptHash = common.Hash{}

	txs := &txs{}
	err = json.Unmarshal(input, txs)
	if err != nil {
		return err
	}

	b.Block = types.NewBlockWithHeader(h).WithBody(types.Body{Transactions: txs.Transactions})
	return nil
}

func main() {
	chainConfig := `{"chainId":901,"homesteadBlock":0,"eip150Block":0,"eip155Block":0,"eip158Block":0,"byzantiumBlock":0,"constantinopleBlock":0,"petersburgBlock":0,"istanbulBlock":0,"muirGlacierBlock":0,"berlinBlock":0,"londonBlock":0,"arrowGlacierBlock":0,"grayGlacierBlock":0,"mergeNetsplitBlock":0,"shanghaiTime":0,"cancunTime":0,"bedrockBlock":0,"regolithTime":0,"canyonTime":0,"ecotoneTime":0,"fjordTime":0,"terminalTotalDifficulty":0,"terminalTotalDifficultyPassed":true,"optimism":{"eip1559Elasticity":6,"eip1559Denominator":50,"eip1559DenominatorCanyon":250}}`
	block := `{"baseFeePerGas":"0x1","blobGasUsed":"0x0","difficulty":"0x0","excessBlobGas":"0x0","extraData":"0x","gasLimit":"0x1c9c380","gasUsed":"0xb5de","hash":"0x6cc6b6812434fc0a64bb6089310f1b452486efb686fe25b8c6d703c9f094c914","logsBloom":"0x00000000000000000000000000000000000000000000000000000000000000000000000000000000000000000000000000000000000000000000000000000000000000000000000000000000000000000000000000000000000000000000000000000000000000000000000000000000000000000000000000000000000000000000000000000000000000000000000000000000000000000000000000000000000000000000000000000000000000000000000000000000000000000000000000000000000000000000000000000000000000000000000000000000000000000000000000000000000000000000000000000000000000000000000000000000","miner":"0x4200000000000000000000000000000000000011","mixHash":"0x1b4dbb98b4685da2c11835ee47d0836642de826778d9c797e785c5cd1f694891","nonce":"0x0000000000000000","number":"0x68f2","parentBeaconBlockRoot":"0x834a9a004485e0d653091201f214b4d77acfbc2bf24f69b7710e0be1c373944f","parentHash":"0xe289a4d8ac88bf3a1350e0c73a6dda9d42f90f9d2e2e58bdca6463d21863ca20","receiptsRoot":"0x53d4d00d33950c417bbd032df023e6815f6092aa77a9bdb66fd42cedac65aa70","sha3Uncles":"0x1dcc4de8dec75d7aab85b567b6ccd41ad312451b948a7413f0a142fd40d49347","size":"0x345","stateRoot":"0xd49c21a54291b9b8595a923cd182f76c80c1c4af9923d34b3764fd4f21ce9936","timestamp":"0x66bab1a2","totalDifficulty":"0x0","transactions":[{"blockHash":"0x6cc6b6812434fc0a64bb6089310f1b452486efb686fe25b8c6d703c9f094c914","blockNumber":"0x68f2","from":"0xdeaddeaddeaddeaddeaddeaddeaddeaddead0001","gas":"0xf4240","gasPrice":"0x0","hash":"0x0044cf681bc949e98af866078516984c589192c8815e89d573ef17537865b21f","input":"0x440a5e20000f42400000000000000000000000000000000066ba89ae00000000000026bd000000000000000000000000000000000000000000000000000000000000000700000000000000000000000000000000000000000000000000000000000000016b370a8d8d9fab2f1c3dbfe074600bffcc11222901aeee3dd9de05cf264274d70000000000000000000000003c44cdddb6a900fa2b585dd299e03d12fa4293bc","nonce":"0x68f1","to":"0x4200000000000000000000000000000000000015","transactionIndex":"0x0","value":"0x0","type":"0x7e","v":"0x0","r":"0x0","s":"0x0","sourceHash":"0xda629b06a9df717ddc7e67f3c9f0bac2fbe2d1d5de951a640213c6b9865ae790","mint":"0x0","depositReceiptVersion":"0x1"}],"transactionsRoot":"0x3efd36459aaf6ed5cd819cf3152ca4719f2dbdc3a1c13c20912d29615d97c987","uncles":[],"withdrawals":[],"withdrawalsRoot":"0x56e81f171bcc55a6ff8345e692c0f86e5b48e01b996cadc001622fb5e363b421"}`
	witness, _ := hex.DecodeString("f935b7f90241f9023ea02b7697d84036a1795a9669141688c4109ebfb96548ecc311638e9bc853db372ea01dcc4de8dec75d7aab85b567b6ccd41ad312451b948a7413f0a142fd40d49347944200000000000000000000000000000000000011a0c3ce3f489bf19e326921f1b525cc925d5a0a70187dc6b02932295fbd4929fd53a06d4e7bf85c43965d2f16d2d8cd41a517c887ebcec97fd4420709470f7323a5dca0a77571dc163dc4ba2fdd3b1d05d3eb15249cecf5162733bd0b78a101dc7a904db9010000000000000000000000000000000000000000000000000000000000000000000000000000000000000000000000000000000000000000000000000000000000000000000000000000000000000000000000000000000000000000000000000000000000000000000000000000000000000000000000000000000000000000000000000000000000000000000000000000000000000000000000000000000000000000000000000000000000000000000000000000000000000000000000000000000000000000000000000000000000000000000000000000000000000000000000000000000000000000000000000000000000000000000000000000000000808268f18401c9c38082b5de8466bab19880a018df583797781b5f89debae18104d500ee3811c7d14b78996d9b33159da447de88000000000000000001a056e81f171bcc55a6ff8345e692c0f86e5b48e01b996cadc001622fb5e363b4218080a0dfdd114cf4c3599c314594508fa592971b1266ead9559a0dc0d263cdb7bf23fdf91339b8613373fffffffffffffffffffffffffffffffffffffffe14604d57602036146024575f5ffd5b5f35801560495762001fff810690815414603c575f5ffd5b62001fff01545f5260205ff35b5f5ffd5b62001fff42064281555f359062001fff015500b9080b60806040526004361061005e5760003560e01c80635c60da1b116100435780635c60da1b146100be5780638f283970146100f8578063f851a440146101185761006d565b80633659cfe6146100755780634f1ef286146100955761006d565b3661006d5761006b61012d565b005b61006b61012d565b34801561008157600080fd5b5061006b6100903660046106dd565b610224565b6100a86100a33660046106f8565b610296565b6040516100b5919061077b565b60405180910390f35b3480156100ca57600080fd5b506100d3610419565b60405173ffffffffffffffffffffffffffffffffffffffff90911681526020016100b5565b34801561010457600080fd5b5061006b6101133660046106dd565b6104b0565b34801561012457600080fd5b506100d3610517565b60006101577f360894a13ba1a3210667c828492db98dca3e2076cc3735a920a3ca505d382bbc5490565b905073ffffffffffffffffffffffffffffffffffffffff8116610201576040517f08c379a000000000000000000000000000000000000000000000000000000000815260206004820152602560248201527f50726f78793a20696d706c656d656e746174696f6e206e6f7420696e6974696160448201527f6c697a656400000000000000000000000000000000000000000000000000000060648201526084015b60405180910390fd5b3660008037600080366000845af43d6000803e8061021e573d6000fd5b503d6000f35b7fb53127684a568b3173ae13b9f8a6016e243e63b6e8ee1178d6a717850b5d61035473ffffffffffffffffffffffffffffffffffffffff163373ffffffffffffffffffffffffffffffffffffffff16148061027d575033155b1561028e5761028b816105a3565b50565b61028b61012d565b60606102c07fb53127684a568b3173ae13b9f8a6016e243e63b6e8ee1178d6a717850b5d61035490565b73ffffffffffffffffffffffffffffffffffffffff163373ffffffffffffffffffffffffffffffffffffffff1614806102f7575033155b1561040a57610305846105a3565b6000808573ffffffffffffffffffffffffffffffffffffffff16858560405161032f9291906107ee565b600060405180830381855af49150503d806000811461036a576040519150601f19603f3d011682016040523d82523d6000602084013e61036f565b606091505b509150915081610401576040517f08c379a000000000000000000000000000000000000000000000000000000000815260206004820152603960248201527f50726f78793a2064656c656761746563616c6c20746f206e657720696d706c6560448201527f6d656e746174696f6e20636f6e7472616374206661696c65640000000000000060648201526084016101f8565b91506104129050565b61041261012d565b9392505050565b60006104437fb53127684a568b3173ae13b9f8a6016e243e63b6e8ee1178d6a717850b5d61035490565b73ffffffffffffffffffffffffffffffffffffffff163373ffffffffffffffffffffffffffffffffffffffff16148061047a575033155b156104a557507f360894a13ba1a3210667c828492db98dca3e2076cc3735a920a3ca505d382bbc5490565b6104ad61012d565b90565b7fb53127684a568b3173ae13b9f8a6016e243e63b6e8ee1178d6a717850b5d61035473ffffffffffffffffffffffffffffffffffffffff163373ffffffffffffffffffffffffffffffffffffffff161480610509575033155b1561028e5761028b8161060c565b60006105417fb53127684a568b3173ae13b9f8a6016e243e63b6e8ee1178d6a717850b5d61035490565b73ffffffffffffffffffffffffffffffffffffffff163373ffffffffffffffffffffffffffffffffffffffff161480610578575033155b156104a557507fb53127684a568b3173ae13b9f8a6016e243e63b6e8ee1178d6a717850b5d61035490565b7f360894a13ba1a3210667c828492db98dca3e2076cc3735a920a3ca505d382bbc81815560405173ffffffffffffffffffffffffffffffffffffffff8316907fbc7cd75a20ee27fd9adebab32041f755214dbc6bffa90cc0225b39da2e5c2d3b90600090a25050565b60006106367fb53127684a568b3173ae13b9f8a6016e243e63b6e8ee1178d6a717850b5d61035490565b7fb53127684a568b3173ae13b9f8a6016e243e63b6e8ee1178d6a717850b5d61038381556040805173ffffffffffffffffffffffffffffffffffffffff80851682528616602082015292935090917f7e644d79422f17c01e4894b5f4f588d331ebfa28653d42ae832dc59e38c9798f910160405180910390a1505050565b803573ffffffffffffffffffffffffffffffffffffffff811681146106d857600080fd5b919050565b6000602082840312156106ef57600080fd5b610412826106b4565b60008060006040848603121561070d57600080fd5b610716846106b4565b9250602084013567ffffffffffffffff8082111561073357600080fd5b818601915086601f83011261074757600080fd5b81358181111561075657600080fd5b87602082850101111561076857600080fd5b6020830194508093505050509250925092565b600060208083528351808285015260005b818110156107a85785810183015185820160400152820161078c565b818111156107ba576000604083870101525b50601f017fffffffffffffffffffffffffffffffffffffffffffffffffffffffffffffffe016929092016040019392505050565b818382376000910190815291905056fea164736f6c634300080f000ab90ac5608060405234801561001057600080fd5b506004361061016c5760003560e01c806371cfaa3f116100cd578063c598591811610081578063e591b28211610066578063e591b2821461032a578063e81b2c6d1461034c578063f82061401461035557600080fd5b8063c598591814610302578063d84447151461032257600080fd5b80638b239f73116100b25780638b239f73146102d05780639e8c4966146102d9578063b80777ea146102e257600080fd5b806371cfaa3f146102a95780638381f58a146102bc57600080fd5b806354fd4d50116101245780635cf24969116101095780635cf249691461024257806364ca23ef1461024b57806368d5dca61461027857600080fd5b806354fd4d50146101f8578063550fcdc91461023a57600080fd5b8063213268491161015557806321326849146101a25780634397dfef146101ba578063440a5e20146101f057600080fd5b8063015d8eb91461017157806309bd5a6014610186575b600080fd5b61018461017f366004610930565b61035e565b005b61018f60025481565b6040519081526020015b60405180910390f35b6101aa61049d565b6040519015158152602001610199565b6101c26104dc565b6040805173ffffffffffffffffffffffffffffffffffffffff909316835260ff909116602083015201610199565b6101846104f0565b60408051808201909152600c81527f312e342e312d626574612e31000000000000000000000000000000000000000060208201525b60405161019991906109a2565b61022d610547565b61018f60015481565b60035461025f9067ffffffffffffffff1681565b60405167ffffffffffffffff9091168152602001610199565b6003546102949068010000000000000000900463ffffffff1681565b60405163ffffffff9091168152602001610199565b6101846102b7366004610a15565b610556565b60005461025f9067ffffffffffffffff1681565b61018f60055481565b61018f60065481565b60005461025f9068010000000000000000900467ffffffffffffffff1681565b600354610294906c01000000000000000000000000900463ffffffff1681565b61022d61060b565b60405173deaddeaddeaddeaddeaddeaddeaddeaddead00018152602001610199565b61018f60045481565b61018f60075481565b3373deaddeaddeaddeaddeaddeaddeaddeaddead000114610405576040517f08c379a000000000000000000000000000000000000000000000000000000000815260206004820152603b60248201527f4c31426c6f636b3a206f6e6c7920746865206465706f7369746f72206163636f60448201527f756e742063616e20736574204c3120626c6f636b2076616c7565730000000000606482015260840160405180910390fd5b6000805467ffffffffffffffff98891668010000000000000000027fffffffffffffffffffffffffffffffff00000000000000000000000000000000909116998916999099179890981790975560019490945560029290925560038054919094167fffffffffffffffffffffffffffffffffffffffffffffffff00000000000000009190911617909255600491909155600555600655565b6000806104a86104dc565b5073ffffffffffffffffffffffffffffffffffffffff1673eeeeeeeeeeeeeeeeeeeeeeeeeeeeeeeeeeeeeeee141592915050565b6000806104e7610615565b90939092509050565b73deaddeaddeaddeaddeaddeaddeaddeaddead000133811461051a57633cc50b456000526004601cfd5b60043560801c60035560143560801c60005560243560015560443560075560643560025560843560045550565b6060610551610696565b905090565b3373deaddeaddeaddeaddeaddeaddeaddeaddead0001146105a3576040517f3cc50b4500000000000000000000000000000000000000000000000000000000815260040160405180910390fd5b6105af84848484610757565b604080518381526020810183905260ff85169173ffffffffffffffffffffffffffffffffffffffff8716917f10e43c4d58f3ef4edae7c1ca2e7f02d46b2cadbcc046737038527ed8486ffeb0910160405180910390a350505050565b6060610551610829565b6000808061064b61064760017f04adb1412b2ddc16fcc0d4538d5c8f07cf9c83abecc6b41f6f69037b708fbcec610a7a565b5490565b73ffffffffffffffffffffffffffffffffffffffff8116935090508261068a575073eeeeeeeeeeeeeeeeeeeeeeeeeeeeeeeeeeeeeeee92601292509050565b60a081901c9150509091565b606060006106a2610615565b5090507fffffffffffffffffffffffff111111111111111111111111111111111111111273ffffffffffffffffffffffffffffffffffffffff82160161071b57505060408051808201909152600381527f4554480000000000000000000000000000000000000000000000000000000000602082015290565b61075161074c61064760017fa48b38a4b44951360fbdcbfaaeae5ed6ae92585412e9841b70ec72ed8cd05764610a7a565b6108df565b91505090565b6107bd61078560017f04adb1412b2ddc16fcc0d4538d5c8f07cf9c83abecc6b41f6f69037b708fbcec610a7a565b74ff000000000000000000000000000000000000000060a086901b1673ffffffffffffffffffffffffffffffffffffffff8716179055565b6107f06107eb60017f657c3582c29b3176614e3a33ddd1ec48352696a04e92b3c0566d72010fa8863d610a7a565b839055565b61082361081e60017fa48b38a4b44951360fbdcbfaaeae5ed6ae92585412e9841b70ec72ed8cd05764610a7a565b829055565b50505050565b60606000610835610615565b5090507fffffffffffffffffffffffff111111111111111111111111111111111111111273ffffffffffffffffffffffffffffffffffffffff8216016108ae57505060408051808201909152600581527f4574686572000000000000000000000000000000000000000000000000000000602082015290565b61075161074c61064760017f657c3582c29b3176614e3a33ddd1ec48352696a04e92b3c0566d72010fa8863d610a7a565b60405160005b82811a156108f5576001016108e5565b80825260208201838152600082820152505060408101604052919050565b803567ffffffffffffffff8116811461092b57600080fd5b919050565b600080600080600080600080610100898b03121561094d57600080fd5b61095689610913565b975061096460208a01610913565b9650604089013595506060890135945061098060808a01610913565b979a969950949793969560a0850135955060c08501359460e001359350915050565b600060208083528351808285015260005b818110156109cf578581018301518582016040015282016109b3565b818111156109e1576000604083870101525b50601f017fffffffffffffffffffffffffffffffffffffffffffffffffffffffffffffffe016929092016040019392505050565b60008060008060808587031215610a2b57600080fd5b843573ffffffffffffffffffffffffffffffffffffffff81168114610a4f57600080fd5b9350602085013560ff81168114610a6557600080fd5b93969395505050506040820135916060013590565b600082821015610ab3577f4e487b7100000000000000000000000000000000000000000000000000000000600052601160045260246000fd5b50039056fea164736f6c634300080f000af92034b90214f90211a024c736b78c4a72752cb1aaa2e56bfab18e354274444a36e67b79c18f320c2587a0cfeed724b6a681d2af04ef34d0d2ae3db485fa43f484fd2b719c0d77ef97658ba005e53409759b1ed1626b6e919a9d6d417f0bb3e552996778d823a59ec23426bfa0b27d42a4214f3cf4cf6d8ee69180a48937665e70231bd23aa79e02130e357d27a00642428ff6429d75bf5d71eceb68810bcebdcdde93ecf3d5918842d68d96ab1fa01d529e5a64f799ab9f39c7d4bd102f90b684fbbdc63ddb7d205d8aa613833101a011d33a2f0a30b796ee23cf85b97f24626e05832c5bc3bfeb9e5fa4ffc55b3e0ca02960c9011017d6ef288ccf53b422d18fa0c75bc14d0a23781b12630da19e0a9fa059be64111a5fab66cfb8a1212020be71310b17110fcacdc6a3d04b39158a0c23a0b80137ac6aaaa61b7370929d28778222f864d1ad961026c70ec681b6b48f84baa0c179f93b44be4415e6700f5467ac1ba9c5bc211658f83651cc115c1bab11f390a0e55590a22c28d3eff12a54167ecb94f9c5f622f609276c86e5ac3aedf2b5a014a098fd35636c63e0979e5a9489c324365d6f48a9becf30591ba73e23a40d8c1a16a0836761479774be3f796b892b0678eab73787bc892b8d4befe2f9b0f646ed873aa0beaecc455cf8037c447b855a73d4a12ef25b2ec00470d0acf6eabd337b309fb5a03d28d3ad7e0197a3c166419e18730a9cb62809762996483049d9611544d3020b80b90214f90211a057288a3d459d6221157c8109516f84276a2f2660bdf89090cfce8ff548834fa8a072113ce2314bf01b863391ae84357d9e1612c43e7e026279663e4b5945e411b4a013c1071955b2cf1c302d9e6cf872635bbfe245b25d64dd868e268b651e15768aa033f573d1fb45fb721408ce9360396cb0a86b4270b964aa47cd84d764475adbe1a05c109fd7666b375125e815b422780bef0495bc128af3e31c701065de99d07019a0bdfc5e3674f2b8880cfa42f234b6b33b12afaf8a78b64e4a2892c8f28d214395a0fd5bfdd90fe8be9acac10edca1aebda75c7b6d1e7ecc15aa8ef761ac387c561ca01952354892df6387f11eb3075f506469453e9973f8ff5e16accfaf98a6f71fa3a019c24987460169d60ca70be9979f36a4069cdce5547b96e5864db83d65694cf6a0a848846ef130d431b661f21f972f05b6f35e8988618066196eccd675d45096d0a07e8aa1ec48f1a91c3e8146debadf4dce288b6e1c80f64249d44dabbb7fe77f0ba0ca258a3e86de757585fb69d0fcf816521725309b534e62936136b444b5f0b9cca0dd5efd6b9aad62ba1c2a4ef6379a394369601c7d2333315809521a299514b5b1a0a762d8a9db4329a6cd55ca630ea8c66da262383469aabdd64121c72cc1714e27a01faaac6f661de6962b5be6298e4499fbb193c3a5a873f60446195beb5a58ce3da0c3b4c583d033575a4f99b0330abf820ac7d5e2551ac5c105448adce5a5ed14b380b90214f90211a0fb210d04b57d38fdc941a2a8c1c8b661b4dca39cb670deb5550824fabf5cb173a062f369809c589f94cf1b2574bae16c8bc61bf8cd200ea6a9762a95776570f7e9a08b4d49c6e28f2a3f86b5d6ca53e3baa69f46adc720bd4f54423ce17669672e99a02448797d990a551da7acb9329a10e2fbbd84d1949653bc841b650ad9b6a6a337a0fd1f8fb0131ed2427dd09dd73b9dbbf4fa6c0403bb71396c25e58a2968d4a9d6a002865ddb47707b5b732722a11af2dc7345a932922765e41d1e2489cb3643bdcda029374a8bcff9b2dd18f45cdbe2cc53f9f0bced41c84495a908dab2f2a4dc680da003eaa5c48b2251fbea9fc326dd69350b45aaa87e6d603e35d1f5e777c514f45fa063d82d8614136c9af2905e4b7c79861efeac10980a8478ae612028378a7a47b9a03302eeaa9ccbb32c886cb07366bc8292a35bdaaa509bcd244c247b9a54c23d10a075499e597171013b81de16b6d3663d2eb67daa8c9762a934701b80bf7360e225a05219cec40d632fab0a43144d5f140d850fe18febb1b5da0ab425c05232c26704a095fc11982059fd3b5c7ea5a521b71a62aab763086a549173e6e2c51a1a9b6a69a0fc2cb663680d2bd0bd061913f986ad4a0a50c6fb8fe96b328af41726bff23b1fa0f729064e71b456baccfd5ae9a844516655183ea373442a9ffba9839d615f993ba021871798ce50ed726918a4db79cdcdca4c1a408ff1c42753d0d55212143fcbec80b86af8689f20eb2b05f896ff0105268980868fa165a0822afb78240802859cc07e175bebb846f8448080a0514526fc5a6f100a03a8328c1caf93ce3a8e20a473d6e00b0b2129ef74bbf27da0fa8c9db6c6cab7108dea276f4cd09d575674eb0852c0fa3187e59e98ef977998b873f8718080808080a0650264cf14206c2fadaf62391746e43e46659863b10dac8d4b7a0fa12270005180a0f59ba5b0b0b5db157818dabbd7aaca5bd9fbccbc0c30135a3e19876f99c8aefb808080a0db7e8be931e375cfd1a319fe927e86775e7a7e2b30c7fdb8c5bc1ae2d1d3607e8080808080b844f8429f20f1101d3e6df5110fa5d736aec4b29c98a104eeca5f2b8b08f9e5df5aea1ca1a0048fdb7a11e3e5de24b25719017fb61b8ee8e8cadf4b0e57c1f95eea7304b3b0b845f843a0305787fa12a823e0f2b7631cc41b3ba8828b3321ca811111fa75cd3aa3bb5acea1a0f55454213f0fe11d1b5c86b7ccf82c2639f70cbf2e4e7355f559b7b2cc71304fb86af8689f205eaa92c6bc4c13a5ec45527f0c18ea8932588728769ec7aecfe6d9f32e42b846f8440180a03141557c632797bb78e2bf342b84f89a6270083bd5df2d72bc715b00b70340d9a0f57acd40259872606d76197ef052f3d35588dadf919ee1f0e3cb9b62d3f4b02cb90114f9011180a0f9359e53774e034700193fe4c90fc3e0d19fcfbecec9dd0ee52e9fbac46c5da480808080a0dc3c17f3df3760930e3a416bbcc6c43aef15ce9e07e71ecd59359dd91a53fbbea0818d72d5842022680a767159414ff9f9bf22475d76088086c22e09e7663ea25a8080a0d63544caaf6d1a52213bfbb7d34f347dfad2855b35c7864571f5d835ac405246a066caa80c61fca8c8802eed438566ee00348f9ddb9e474cde79eb3d9eb801dc4780a0fa04260e07d24d63a393a875bd032b905639fafe368e23f4e660bf7b0c3ec784a0816e44f90c19cc8a47fb514ba3de719eb1e51d0f6ac8e77c96253d9c8847aa92a0ed044be660d42f61d8c44e517fd51643d5bb1fd4e0cbf533da4d759a4cb4828980b86af8689f34144b5208287351cbab3c9be1d76218cc17d00f2015043ebbfb672cf03df2b846f8448080a02527617e608e162462d4098c8338838e3b87b562cd2096c05c7078777993827ba0fa8c9db6c6cab7108dea276f4cd09d575674eb0852c0fa3187e59e98ef977998b90214f90211a04c837312a6d30001476f1d869777191657179709ac8167715cf804fc3e861ff3a0bb7cfbcc20d40a467e4422ff60ea5808c8797ab0cab0da0cf127b1e46716a455a02c17a5b41a1591c2e99123cb424f0ea0d0c976c75a46fc47b7e467370a6c2ebda0d76a075bc1be60a46180b1fe17809e87e4b7961c66184fa4d7ede66310b1edaaa0cdec22bc3538929e3cd31c0719958c5af47631e077930da589ca1b3a7662101da01371bd04074ddaff80e602b95986f5a7ae68b9a3b9082170dbf7c184dca93a63a06203ad63680d0df4eb5aa012f1fdd9821fbb0f005bd3d877a0d5199fbe4cfa75a099bd7542009d52084974eb40145a70dbacf1f811fdb3861407424ec2d1b4edeca03b66f6e8652d08afb39c67fc30e718d1e592fc76d223c219a407acfdbb050909a0cb8d7c81f7d32f02c1b08a4004f6adfaf7053e9b0a474531fed67b32890688a8a00a8e19d5300434a3a896003e6192212959706c3cf58284b1a5510c1c2ba24ebba010db7e35e2c6fd04aafd686c775ae76835bb2157047eda56665739d1cfb6ccf8a0ec4e16b1619c61bd230cc0ecff43689b6f75884d10c7f300a2f575f0b3f81de5a0f37322f53a12908e9842ffed0df321dcff1f8bc855b67c49938ceb939fc001d6a0d02ebd9311d89669fdfcd6564a7b5e9c304abd02e4a46f0b32096ccc48097400a0de287a6bc50d40d866030048e3346191ae3ead9e3b286710026112725eacc67d80b838f7a035b20eef8615de99c108b05f0dbda081c91897128caa336d75dffb97c4132b4d9594c0d3c0d3c0d3c0d3c0d3c0d3c0d3c0d3c0d30015b86af8689f3277256e348603e0956bfbbc7c4218e26aab7e894d4db3741596c054c89faeb846f8448080a056e81f171bcc55a6ff8345e692c0f86e5b48e01b996cadc001622fb5e363b421a03f5ec6b10ec3d60b3a840f6eb476ded32bbfc5dd68c12daccbbc775a2b93a10cb901f4f901f1a02b9363c6270d0e438dc41e019eb8ab2718a0d0626c24c00254b78315b1501c71a0eda655d4d5cb657f2ba3f674a2e22087dc20150ae290a702299b67972cd0a1f2a030ed0ffcf132f5b71e736f5e6449db4ff9e1dafba86362a78920c643563b177ba0b6a1b353b680c6ee2916f3c174920cfa73903af938ab032d80ba1f7d2aebfe3ba0be6b21c3bf10ac99a15baaed6901b76259949a20384790e972d0a4036628cba8a0471115c62753568e9ddee7daf447275333c3c72002d34324731e188cbe652649a0a034db0d85b9057515f26d1cd0d959ff1ad3ae20c31d7230a98915fd33f9051da0bf696a128fb1a618d27179f9f4f12cbd5e4e11c1cd3cee39ad8387b70c7ce6e0a01785e2bfec850957a4bb3ab6bf0c6ebf4e162731c43f8b5ccd904250cc9afa6ea0c1e07ac43de354ee7ca777a9fb025d6b45da5fad615a3c0c30202fece211d7dda08710911216e4029750731e76cf477882ee48f97fa18a094a3f2868232b5336e2a0d4a99df9e3d9c0ac041f23c411af1a69115d4744812b7069829a9d7a21724279a02ee3ddfd90d760140c8cd29473e6b9a9eefdfb7247db63f909598d3d267aaa08a09cd60f6fc0dc5bcad2dd68572ad78457e24c25590e8eb57067b67961df0689f880a049ea092262baf513c3121876ff58d4dedcd29c24952c4c30cdca78f4415f368c80a7e69f2019d285f2b184f2fb800b26a33e4b3d7ae53a87b130ba7fc52fb76a984663858466b971acb0efa0390decd9548b62a8d60345a988386fc84ba6bc95484008f6362f93160ef3e5638d8c66ba89a800000000000026bca3e2a0310e2d527612073b26eecdfd717e6a320cf44b4afac2b0732d9fcbe2b7fa0cf607b86cf86a9f38c100b897ed7bf8098817066027566d46d1335b8e9a6ce03de93e6b5b9401b848f8468268f180a056e81f171bcc55a6ff8345e692c0f86e5b48e01b996cadc001622fb5e363b421a0c5d2460186f7233c927e7db2dcc703c0e500b653ca82273b7bfad8045d85a470b90214f90211a00cfba29415ea52f522cf09c3d17c70fe950d710a2db8845dc2fc8313f88d52d4a06d8ed1c1bce0c699870e6694a1410bb89ec060541bbce620cad49891f27cc03fa0cc379cf96f2444c8544f548e1332bed379576d8acd24c03770114b5c99c3295ea0d770869ce96a0a54709e626fbb820deba270b75467108f7de1064a40a7484167a02348ea25277b24747fbc063719df19a75480ecfa170a45eb5825c57d84d96b53a09f244ad0c1f38c19ff968d3ef890937c9c26726d23b2a6ec8d0334dca1cab801a05d352c5a497588e8342aae505cdbab0a6fd9f34f339231fc81c354016171c4dfa0596da6dc3cf08c47cc6d14bb344c59833304407827ff780248205e1ed2ff32bda0cb8fa140fbc05b1b1b19f9aac4bead2a86f3d5320f3b835d1fb182d1b7916e01a0b7ddf67e1926f25f2fb01ea5c4bfe646de55be1e63afd07f9e0ec0b6426c89f5a04ddfb136634f4b1dc4f3a027061a2fe67a509daf9a0d4e4dd6472a76856735ffa0224740cd7f074424f1b7c03d688fd7036b9d5d5691b3c2a915333b3e082c3cf9a023e3e0a6801d02f6ee0c99413983976583b72de9d4dd583bae43aa8bc4e88a31a0a2e2a7e14aacd3c6a640889418cf3c4e319039c373680decf99cbf98b52569a1a069db6179c993a98ae904734866f632c948572b4709071ef91be76ee39a1d5d7ea0e5400e7fd59d1354b92c7f1c7433a2fc069f185348d2f3e9853e861c73faf50b80b893f891a0f6ca76c374bcee1f1bd9fc26348045fbf4df8053ae23c04950f824a23037d10f80a0df37d5344f1f92be4ef317f2e9e12a7f7663482e8c8410c68ab5d206c7e319998080a0c4fd8c332e3807e5080a7a1728f248cb101ab2bf9f7341f68f7cefe263f95f5a808080808080a07c046a516d85858ac40420c45e16299b6bd742ba34167d2d8e2e2772ecd294f380808080b90214f90211a0e272cbcc9365bc57c59fecc2c84fdfc378582d0b986810264ad34d6765e540bfa033e06b0798b73eb5329f2decdf35d316ab63f7ba1a77cf2c4d43f7d2ea22c091a0605a5bb20508b2e02ba9caa43a3ad11227c6f7aa309ad96db46c6c49a86cc51ca0317e98cab8485c3242ee7d182ef279271f7fc9eb8e9980538718784d530f4bfea05fcbcd738774bccd1d01072ba38e90d7de860b8d13b62a1ad08b6f86d701be64a080740bb629e1ae8fb036157596f8e6b3edbffd9f54ccd09cf9f9643e18e1ce9aa0931865f2e2e7d99aeba00527950a16e6c080af038456fbe5c9b55e3beada9f4ba091cc6ff0c8c7008a91a95dcb25c158aa22c88e845daf2b53b0285763fd8782cba012a054b81a9a1499bb1df52c927add92849e40108977b7c0579fdccd5dbe4baaa06e78c556005c4325d796269bb8a0dc5d24cb9cebdce6527fb0c0a236e8a1c790a00c670ef6bc26a291ec1bfc6592edfcadcd8b77d5b3b2cefb86809e7b96dd8f48a0b5534edba0f97cd54a21855177c8d73026fe25974b149e8e7ffd1434d39a4a82a02d5a15a7a0e01ead80f74e6726bc30131a5d73ae509b58e7734ab49d0e9e0afaa0aa8b221624d7a078ca15d8aede4d14d7bb84aca5a6ce62d394dbbfec682a298da041ad75ca7b7a409c6aa0090d63454385d47777f029265b7ca53ab8ecfc309fa1a07c360d92f155a2fd2eb593697a7112abee56d1d24c026bf9584b2469f4c805ba80b90154f9015180a074d5e63972132433a44b042a51d4e055c81f94824ef1a7fea33945674030befca0514a99ed2f13fb29498798e6158c34c6880f789047d24d8c8afb7a94d941a27a8080a0911c77c8f8c48d1a8c0fdde0a4a1a9ddf7639dbb663e9f174f2c5bdb5206086ea0cd7c8d5362658583c812ffb147d144f334921d9f83e633dc87bb43b0a96b8e14a099ce4671d53e96fe8890001f7967feec501f2a8c534e4e394413acfa8a45e34980a02f400593370c399c45af450382383ad1023f649c6fa90ecf18c82c03e86479448080a058f72f487a91d5e084c63221871b6c20415bc6f347232318f13587457ecf0c15a0bdf3bbaade59704c11d23fa3d82bc1f006458631d09d6d483e64503c4dde8f48a0d5ff47e3c53a61cff6e3c5800462bbe63076ac30f456f704d70e815214667562a06b3b37449c954df35fd4c6a423d92fdd0f2085454cd9e867da7902bfbdd96b1980a3e2a0366cc928b5edb82af9bd49922954155ab7b0942694bea4ce44661d9a8736c68801b838f7a03a35acfbc15ff81a39ae7d344fd709f28e8600b4aa8c65c6b64bfe7fe36bd19b95943c44cdddb6a900fa2b585dd299e03d12fa4293bcb90114f901118080a000ccc9fd2e902f6ade7fc87354f26ae7635aaa466f8479b7f4f7e1f055d0dead80a08dc28312bd0557964e02af4e32f9b710e9df77f827caf6a2ad466ab52f451430a0231eba9c2bc1784b944714d5260873e3f92b58434c1879123d58f995b342865180a0b851b00b4a13bb15b0a61fb924f5863a5c61dcbeb15e5c286e8904ab40240936a02b3682fb8c90d9145d1cbcfaf2e0718bfe9a7cf6eea18a6b5d80669344c64e1c80a0c5d54b915b56a888eee4e6eeb3141e778f9b674d1d322962eed900f02c29990aa04784fb4f62cc58a00b3ae50ff62c0a3672be2328c21840707284bb09a77ca21aa02a5e3fb0f13b2d3806d2434fbcba573bc89a11ac1c374422377ed6b71ecdda8480808080b8d3f8d1a0984c078d60e799a89e50c6f2af0debb8f52ecb9f1df163fb16cc91896a0ae19a8080a0729caae90e757c54ad46550a9e622f5b6e3b73f1e4607418f06877de101c4801808080a0e155a8152a95de67d50e74d8bc515666b980c381fc107c1276ddcb8e9230b8538080a0c62c00ce70f127db43164d3d9e80dcf291e269c0649c4e5dd7cb9aee8615b65fa04ea935ff4472c246a6fa777347bbdd339e2f251d0a8e68801392c8b2892ab6eb8080a01c13664b9096979e0a6a58919940b248687992af952308581eff9d0e8c14119a8080b90214f90211a0078e65d518b55ee8a077462472825ea6b0d53a95a73da321ec453978d7784107a0935156e8574f141599d94a75cb79077dd51370b8c82b6fb1b0528b939247de74a08643a34b0a6281ca353850340a6cf6bfb8a4104abc306a1aff5e322594b866a3a0e0138b88207062dc3af032519a7bb6a0a618c1fdbf26068eeb68ebbc79d4a3f4a0c82096f499ab3be94f24be9744152d2eaf8d403dc87b91f7c665b02c483fca16a0c39a8909518430e85ecc0e3c0fac94c40ba26d43e4aafd2f04ad1a2cf68262eba0f099a353e8e1f116943b835bfa7b86367dca10db4c365d6a55ef518614394f13a0a5dcdfd8de1cf27160ccafeefa26a044eba972e968d71bf567e1276fb7e73162a04c6301ac7a00c9d000f7570d2e8dcae1491355af4a882a41b31f443154937d45a0f159b3df14e53c7788ad8ff64de2d53101c82a1d7ea91f94550a85aa652f4180a0cdeaf8a75834e99f7676a0c676ead2f65d9792e896766a70cb74a89ba50f1330a011c0bf005d6ee874c17d29be3c2b879f6a0fb2bdbf08f70453489d3e7db03b4ca0cdc19249ef78b7e6b22cd0e5dfc6abc5fef4c159d395f4e174dda466d2fee948a0b1d9286999dedac2d9554c2333ffe4dbd316db473b25f512e30bf8f51efc07a7a03b12ef43d29efc860c00010e84e9b500144623180e39f9bc4a4e9ea0084f7c07a0bc6b61db5b7ae9b6102f98488c331239b60f64c5d64a0b161e230c3394d2030e80b3f2a032575a0e9e593c00f959f8c92f12db2869c3395a3b0502d05e2516446f71f85b908f0f4240000000000000000000000000b853f85180808080808080a0c2e7df5f10202a4563cee7889fbd2bd95413e9465ef4b982f46bea34a2afefcc8080808080a0653bd34a6a9af944bcecefb1a8843a8be6c2bf5ea80561455631ad3a776cdeb6808080b90214f90211a0a29725a166e55b945f9dbf10d1c5579648b3458f3e63b462136d1e5ec4839519a050b6e35c60684d16051c3944611d2e3bae8fc2ed0508ce1b62c11ea37a39dd5aa002bfa0985da2fdaad9aabcd1bcc6b60271122aa637db57caeecb051cfbfb6e21a09ae51622d439e2a10157db69f15f076e7469d7aa26c8dd41b4cb1aed26a5b7fba0b5a41c0a2204aacd0ac06aa0ce3538d4ce2f2debd28b6df2c43dbac9578d8d5ba0b06d45932a31802c219f1009dce9e7996932f486448d4a94259dc2804db65b8aa0c17218f3d94fb9599edad911d7172cdc38b948760711f6e07650458321baeaafa09ab5f2cce1fce0e5fc41e48cdd0eda5bb5c4ccfe6b152ad3f959b8e7dd5e672ea0e69726466f9e9fba0646080c5a458a5ee2ec02cd76953b6add7974657396eaa9a07589b4a5553d3ee6e3961669a7b30e9464d100bf39b839687ed2db2cdf135000a0ce2d9ee37b6f68e148058d186425386c229b20b5a52060d0c5c9146019e09192a099d930c8b3ea5e36034b16b11ff7d08c92224d3c7ebecc71138026f4a3276083a08ccf5d524a2f7f132c353099cb7d8f6c96c77c840bedf4f1b9aebc798e865e3ca00c5981172793122417f2dcfb468aa0ef02c3afef0efe8dcd5f141e7926e642d2a02de2a0cc50a534344fb7e17fec6e6c7e54d07ae49766097c253890406746a137a0e2778ad00677ac33f55499a87e5b935e912eef6b2c24fc390b409d4a070a4ca280b90114f901118080a044116be377aa35c49438335ee4c393f493267a1250a776d5036583dda4bed0dda0ed6fd74256f42bca1aa6cb95300a93475be889069332899c942dbe71ae6d962b80a00ca3272847b07ce42014fa7838029db9ac3117cd1f552cbbcf04e94e6e3767bea00c370e59b49cfc4a9426580a39ca0eb2a74efcf8f65844930ca68c81c3c38c7380a0fd385a412566a277038d39601fa09c18141163e166b75ab7e71865acbae43be1808080a016b4952d514517114b2ceb483252b365888c825ada434afdf07618c1f8c3c376a0cc18420a66f4f3d1b4044f03a04dd2f4302d94ca66618964f6ec1e24d4d6c75480a0605959526ff2710ee42ac0fdcce41c7d3069d3b9cb5f626f255625824bf7d9de80b90214f90211a013a580c1b30e88c7a1a16f58cf7c8cd570c6f5013fcf0da03ce2f64e730c629ba03b2ebc4bac7ce07171ac539a5b054c44dce6419e97416ecf4ea359ee37ec1e8fa0d321b2893aed22193b199de14024a4d62c3ccdb845d9e58d1062d652d4a02d01a0f0dac9ba113e90a5c00d9da2b216ea54061db6083daadf034159c59bacf7f60da05afa624011d109d98636d78e7979af3c2f782f9f761e9c1bc325b1c9c8418126a041b9698c0e061e693bbb0c6490c203962e59e605abce1e509111cf2b67b36c7aa0f4f7ad8de6f616016f573070f20d209915478037590bf35944f0f5bd188e44d9a067e14a7724854453f5be12d126804cde3fd72f3d1848f07d55704742b4ee1c9fa0bc739833895334c20722e2ce691fc064f4b50dcfb47b711821bf0d6ae75c94baa085b447daa6bf693e205c2e1409cd7b00b541559f1bf05817311ebc90e406fb9aa0bcf37f42bb38adeff6795e4e36cde5c765c854595baa3f69c38d7bdddb7894d9a0b7f00f6e52e1e67a8eae764ff842d9b1bc8e73cd6ff79730caaa6c457f5017afa09abe930323fcd53bb0d807b7a93f4721085cfbf34e755c12095622b33afea8baa0302c46cd2955ca4768840e440b306bb49174ae7e6b0fde14b430ea36ddda0937a06734eb5b4b882c8a9f13ba9980c507b822159b915133dec8d602c1847f597cfba03d9768297560d0888980d48bfbda6626ba7be8d58446c3d550ae755d1fe8c68a80b853f85180a0ae6e2072391565b3baf7246178155ae2f816a85af229ec1d563decf964d520b48080808080808080808080a0205a381c838b9156aa4fa824429ea8a868c9744907ebecd0d002d3e96664e035808080b853f851808080808080a073e4063ee76e8b4bdf938aec59da168aa494487d2b4f0779d38d19d349f88ea780808080a0263d7b49f67147402b41d67efdfe8f7db263ca459f6fcad4e04f5a86f1ea94458080808080")

	cc := &params.ChainConfig{}
	err := json.Unmarshal([]byte(chainConfig), cc)
	if err != nil {
		panic(err)
	}

	b := &Block{}
	err = json.Unmarshal([]byte(block), b)
	if err != nil {
		panic(err)
	}

	w := &stateless.Witness{}
	err = rlp.DecodeBytes(witness, w)
	if err != nil {
		panic(err)
	}

	stateRoot, receiptRoot, err := core.ExecuteStateless(cc, b.Block, w)
	if err != nil {
		panic(err)
	}

	fmt.Printf("State root: %v, receipt root: %v\n", stateRoot, receiptRoot)
}
